{
  "contractName": "TodoList",
  "abi": [
    {
      "constant": true,
      "inputs": [
        {
          "name": "",
          "type": "uint256"
        }
      ],
      "name": "tasks",
      "outputs": [
        {
          "name": "id",
          "type": "uint256"
        },
        {
          "name": "content",
          "type": "string"
        },
        {
          "name": "completed",
          "type": "bool"
        }
      ],
      "payable": false,
      "stateMutability": "view",
      "type": "function",
      "signature": "0x8d977672"
    },
    {
      "constant": true,
      "inputs": [],
      "name": "taskCount",
      "outputs": [
        {
          "name": "",
          "type": "uint256"
        }
      ],
      "payable": false,
      "stateMutability": "view",
      "type": "function",
      "signature": "0xb6cb58a5"
    },
    {
      "anonymous": false,
      "inputs": [
        {
          "indexed": false,
          "name": "id",
          "type": "uint256"
        },
        {
          "indexed": false,
          "name": "value",
          "type": "string"
        }
      ],
      "name": "TaskCreated",
      "type": "event",
      "signature": "0xa5ed9e6226c584326505694539c95cb0e3238ae09bcda5a65c00bbfdab1c6662"
    },
    {
      "constant": false,
      "inputs": [
        {
          "name": "_content",
          "type": "string"
        }
      ],
      "name": "createTask",
      "outputs": [],
      "payable": false,
      "stateMutability": "nonpayable",
      "type": "function",
      "signature": "0x111002aa"
    },
    {
      "constant": false,
      "inputs": [
        {
          "name": "_taskId",
          "type": "uint256"
        }
      ],
      "name": "completeTask",
      "outputs": [],
      "payable": false,
      "stateMutability": "nonpayable",
      "type": "function",
      "signature": "0xe1e29558"
    },
    {
      "constant": false,
      "inputs": [
        {
          "name": "_taskId",
          "type": "uint256"
        }
      ],
      "name": "uncompleteTask",
      "outputs": [],
      "payable": false,
      "stateMutability": "nonpayable",
      "type": "function",
      "signature": "0x8984dece"
    }
  ],
  "bytecode": "0x60806040526000805534801561001457600080fd5b50610613806100246000396000f3fe60806040526004361061006d576000357c0100000000000000000000000000000000000000000000000000000000900463ffffffff168063111002aa146100725780638984dece1461013a5780638d97767214610175578063b6cb58a51461023b578063e1e2955814610266575b600080fd5b34801561007e57600080fd5b506101386004803603602081101561009557600080fd5b81019080803590602001906401000000008111156100b257600080fd5b8201836020820111156100c457600080fd5b803590602001918460018302840111640100000000831117156100e657600080fd5b91908080601f016020809104026020016040519081016040528093929190818152602001838380828437600081840152601f19601f8201169050808301925050505050505091929192905050506102a1565b005b34801561014657600080fd5b506101736004803603602081101561015d57600080fd5b81019080803590602001909291905050506103e6565b005b34801561018157600080fd5b506101ae6004803603602081101561019857600080fd5b8101908080359060200190929190505050610418565b604051808481526020018060200183151515158152602001828103825284818151815260200191508051906020019080838360005b838110156101fe5780820151818401526020810190506101e3565b50505050905090810190601f16801561022b5780820380516001836020036101000a031916815260200191505b5094505050505060405180910390f35b34801561024757600080fd5b506102506104e7565b6040518082815260200191505060405180910390f35b34801561027257600080fd5b5061029f6004803603602081101561028957600080fd5b81019080803590602001909291905050506104ed565b005b60008081548092919060010191905055506102ba61051e565b6060604051908101604052806000548152602001838152602001600015158152509050806001600080548152602001908152602001600020600082015181600001556020820151816001019080519060200190610318929190610542565b5060408201518160020160006101000a81548160ff0219169083151502179055509050507fa5ed9e6226c584326505694539c95cb0e3238ae09bcda5a65c00bbfdab1c6662600054836040518083815260200180602001828103825283818151815260200191508051906020019080838360005b838110156103a757808201518184015260208101905061038c565b50505050905090810190601f1680156103d45780820380516001836020036101000a031916815260200191505b50935050505060405180910390a15050565b60006001600083815260200190815260200160002060020160006101000a81548160ff02191690831515021790555050565b6001602052806000526040600020600091509050806000015490806001018054600181600116156101000203166002900480601f0160208091040260200160405190810160405280929190818152602001828054600181600116156101000203166002900480156104ca5780601f1061049f576101008083540402835291602001916104ca565b820191906000526020600020905b8154815290600101906020018083116104ad57829003601f168201915b5050505050908060020160009054906101000a900460ff16905083565b60005481565b600180600083815260200190815260200160002060020160006101000a81548160ff02191690831515021790555050565b60606040519081016040528060008152602001606081526020016000151581525090565b828054600181600116156101000203166002900490600052602060002090601f016020900481019282601f1061058357805160ff19168380011785556105b1565b828001600101855582156105b1579182015b828111156105b0578251825591602001919060010190610595565b5b5090506105be91906105c2565b5090565b6105e491905b808211156105e05760008160009055506001016105c8565b5090565b9056fea165627a7a72305820d4a77ba763255356340398b9042f224b7ac5a4fc8cab553430d379287de72a9d0029",
  "source": "// SPDX-License-Identifier: MIT\npragma solidity >=0.4.22 <0.9.0;\n\ncontract TodoList {\n    uint256 public taskCount = 0;\n\n    struct Task {\n        uint256 id;\n        string content;\n        bool completed;\n    }\n\n    event TaskCreated(uint256 id, string value);\n\n    mapping(uint256 => Task) public tasks;\n\n    function createTask(string memory _content) public {\n        taskCount++;\n        Task memory task = Task(taskCount, _content, false);\n        tasks[taskCount] = task;\n        emit TaskCreated(taskCount, _content);\n    }\n\n    function completeTask(uint256 _taskId) public {\n        tasks[_taskId].completed = true;\n    }\n\n    function uncompleteTask(uint256 _taskId) public {\n        tasks[_taskId].completed = false;\n    }\n}\n",
  "sourcePath": "/Users/raghavahuja/development/blockchain/eth-todo-list/contracts/TodoList.sol",
  "compiler": {
    "name": "solc",
    "version": "0.5.0+commit.1d4f565a.Emscripten.clang"
  },
  "schemaVersion": "3.0.1",
  "updatedAt": "2021-06-02T11:12:24.398Z",
  "devdoc": {
    "methods": {}
  },
  "userdoc": {
    "methods": {}
  }
}